{"contracts/SignatureTransfer.sol":{"SignatureTransfer":{"abi":[{"inputs":[{"internalType":"uint256","name":"maxAmount","type":"uint256"}],"name":"InvalidAmount","type":"error"},{"inputs":[],"name":"InvalidContractSignature","type":"error"},{"inputs":[],"name":"InvalidNonce","type":"error"},{"inputs":[],"name":"InvalidSignature","type":"error"},{"inputs":[],"name":"InvalidSignatureLength","type":"error"},{"inputs":[],"name":"InvalidSigner","type":"error"},{"inputs":[],"name":"LengthMismatch","type":"error"},{"inputs":[{"internalType":"uint256","name":"signatureDeadline","type":"uint256"}],"name":"SignatureExpired","type":"error"},{"anonymous":false,"inputs":[{"indexed":true,"internalType":"address","name":"owner","type":"address"},{"indexed":false,"internalType":"uint256","name":"word","type":"uint256"},{"indexed":false,"internalType":"uint256","name":"mask","type":"uint256"}],"name":"UnorderedNonceInvalidation","type":"event"},{"inputs":[],"name":"DOMAIN_SEPARATOR","outputs":[{"internalType":"bytes32","name":"","type":"bytes32"}],"stateMutability":"view","type":"function"},{"inputs":[{"internalType":"uint256","name":"wordPos","type":"uint256"},{"internalType":"uint256","name":"mask","type":"uint256"}],"name":"invalidateUnorderedNonces","outputs":[],"stateMutability":"nonpayable","type":"function"},{"inputs":[{"internalType":"address","name":"","type":"address"},{"internalType":"uint256","name":"","type":"uint256"}],"name":"nonceBitmap","outputs":[{"internalType":"uint256","name":"","type":"uint256"}],"stateMutability":"view","type":"function"},{"inputs":[{"components":[{"components":[{"internalType":"address","name":"token","type":"address"},{"internalType":"uint256","name":"amount","type":"uint256"}],"internalType":"struct ISignatureTransfer.TokenPermissions","name":"permitted","type":"tuple"},{"internalType":"uint256","name":"nonce","type":"uint256"},{"internalType":"uint256","name":"deadline","type":"uint256"}],"internalType":"struct ISignatureTransfer.PermitTransferFrom","name":"permit","type":"tuple"},{"components":[{"internalType":"address","name":"to","type":"address"},{"internalType":"uint256","name":"requestedAmount","type":"uint256"}],"internalType":"struct ISignatureTransfer.SignatureTransferDetails","name":"transferDetails","type":"tuple"},{"internalType":"address","name":"owner","type":"address"},{"internalType":"bytes","name":"signature","type":"bytes"}],"name":"permitTransferFrom","outputs":[],"stateMutability":"nonpayable","type":"function"},{"inputs":[{"components":[{"components":[{"internalType":"address","name":"token","type":"address"},{"internalType":"uint256","name":"amount","type":"uint256"}],"internalType":"struct ISignatureTransfer.TokenPermissions[]","name":"permitted","type":"tuple[]"},{"internalType":"uint256","name":"nonce","type":"uint256"},{"internalType":"uint256","name":"deadline","type":"uint256"}],"internalType":"struct ISignatureTransfer.PermitBatchTransferFrom","name":"permit","type":"tuple"},{"components":[{"internalType":"address","name":"to","type":"address"},{"internalType":"uint256","name":"requestedAmount","type":"uint256"}],"internalType":"struct ISignatureTransfer.SignatureTransferDetails[]","name":"transferDetails","type":"tuple[]"},{"internalType":"address","name":"owner","type":"address"},{"internalType":"bytes","name":"signature","type":"bytes"}],"name":"permitTransferFrom","outputs":[],"stateMutability":"nonpayable","type":"function"},{"inputs":[{"components":[{"components":[{"internalType":"address","name":"token","type":"address"},{"internalType":"uint256","name":"amount","type":"uint256"}],"internalType":"struct ISignatureTransfer.TokenPermissions","name":"permitted","type":"tuple"},{"internalType":"uint256","name":"nonce","type":"uint256"},{"internalType":"uint256","name":"deadline","type":"uint256"}],"internalType":"struct ISignatureTransfer.PermitTransferFrom","name":"permit","type":"tuple"},{"components":[{"internalType":"address","name":"to","type":"address"},{"internalType":"uint256","name":"requestedAmount","type":"uint256"}],"internalType":"struct ISignatureTransfer.SignatureTransferDetails","name":"transferDetails","type":"tuple"},{"internalType":"address","name":"owner","type":"address"},{"internalType":"bytes32","name":"witness","type":"bytes32"},{"internalType":"string","name":"witnessTypeString","type":"string"},{"internalType":"bytes","name":"signature","type":"bytes"}],"name":"permitWitnessTransferFrom","outputs":[],"stateMutability":"nonpayable","type":"function"},{"inputs":[{"components":[{"components":[{"internalType":"address","name":"token","type":"address"},{"internalType":"uint256","name":"amount","type":"uint256"}],"internalType":"struct ISignatureTransfer.TokenPermissions[]","name":"permitted","type":"tuple[]"},{"internalType":"uint256","name":"nonce","type":"uint256"},{"internalType":"uint256","name":"deadline","type":"uint256"}],"internalType":"struct ISignatureTransfer.PermitBatchTransferFrom","name":"permit","type":"tuple"},{"components":[{"internalType":"address","name":"to","type":"address"},{"internalType":"uint256","name":"requestedAmount","type":"uint256"}],"internalType":"struct ISignatureTransfer.SignatureTransferDetails[]","name":"transferDetails","type":"tuple[]"},{"internalType":"address","name":"owner","type":"address"},{"internalType":"bytes32","name":"witness","type":"bytes32"},{"internalType":"string","name":"witnessTypeString","type":"string"},{"internalType":"bytes","name":"signature","type":"bytes"}],"name":"permitWitnessTransferFrom","outputs":[],"stateMutability":"nonpayable","type":"function"}],"devdoc":{"errors":{"InvalidAmount(uint256)":[{"params":{"maxAmount":"The maximum amount a spender can request to transfer"}}],"LengthMismatch()":[{"details":"If the spender does not need to transfer the number of tokens permitted, the spender can request amount 0 to be transferred"}],"SignatureExpired(uint256)":[{"params":{"signatureDeadline":"The timestamp at which a signature is no longer valid"}}]},"kind":"dev","methods":{"DOMAIN_SEPARATOR()":{"details":"Uses cached version if chainid and address are unchanged from construction."},"invalidateUnorderedNonces(uint256,uint256)":{"details":"The wordPos is maxed at type(uint248).max","params":{"mask":"A bitmap masked against msg.sender's current bitmap at the word position","wordPos":"A number to index the nonceBitmap at"}},"permitTransferFrom(((address,uint256),uint256,uint256),(address,uint256),address,bytes)":{"details":"Reverts if the requested amount is greater than the permitted signed amount","params":{"owner":"The owner of the tokens to transfer","permit":"The permit data signed over by the owner","signature":"The signature to verify","transferDetails":"The spender's requested transfer details for the permitted token"}},"permitTransferFrom(((address,uint256)[],uint256,uint256),(address,uint256)[],address,bytes)":{"params":{"owner":"The owner of the tokens to transfer","permit":"The permit data signed over by the owner","signature":"The signature to verify","transferDetails":"Specifies the recipient and requested amount for the token transfer"}},"permitWitnessTransferFrom(((address,uint256),uint256,uint256),(address,uint256),address,bytes32,string,bytes)":{"details":"The witness type string must follow EIP712 ordering of nested structs and must include the TokenPermissions type definitionReverts if the requested amount is greater than the permitted signed amount","params":{"owner":"The owner of the tokens to transfer","permit":"The permit data signed over by the owner","signature":"The signature to verify","transferDetails":"The spender's requested transfer details for the permitted token","witness":"Extra data to include when checking the user signature","witnessTypeString":"The EIP-712 type definition for remaining string stub of the typehash"}},"permitWitnessTransferFrom(((address,uint256)[],uint256,uint256),(address,uint256)[],address,bytes32,string,bytes)":{"details":"The witness type string must follow EIP712 ordering of nested structs and must include the TokenPermissions type definition","params":{"owner":"The owner of the tokens to transfer","permit":"The permit data signed over by the owner","signature":"The signature to verify","transferDetails":"Specifies the recipient and requested amount for the token transfer","witness":"Extra data to include when checking the user signature","witnessTypeString":"The EIP-712 type definition for remaining string stub of the typehash"}}},"stateVariables":{"nonceBitmap":{"details":"Uses unordered nonces so that permit messages do not need to be spent in a certain orderThe mapping is indexed first by the token owner, then by an index specified in the nonceIt returns a uint256 bitmapThe index, or wordPosition is capped at type(uint248).max"}},"version":1},"evm":{"bytecode":{"linkReferences":{},"object":"60c0346100bb574660a052602081017f8cad95687ba82c2ce50e74f7b754645e5117c3a5bec8151c0726d5857980a86681527f9ac997416e8ff9d2ff6bebeb7149f65cdae5e32e2b90440b566bb3044041d36a60408301524660608301523060808301526080825260a082019180831060018060401b038411176100a5578260405251902060805261153b90816100c1823960805181610bfe015260a05181610bd80152f35b634e487b7160e01b600052604160045260246000fd5b600080fdfe6040608081526004908136101561001557600080fd5b600090813560e01c8063137c29fe1461067c57806330f28b7a1461057c5780633644e5151461053b5780633ff9dcb1146104bb5780634fe02b441461044b578063edd9444b146102e25763fe8ec1a71461006e57600080fd5b346102de5760c07ffffffffffffffffffffffffffffffffffffffffffffffffffffffffffffffffc3601126102de5767ffffffffffffffff83358181116102da576100bc9036908601610a7b565b6024358281116102d6576100d39036908701610ba4565b6100db61097b565b916084358581116102d2576100f39036908a01610a35565b98909560a4359081116102ce5761010c91369101610a35565b96909581519061011b826108be565b606b82527f5065726d697442617463685769746e6573735472616e7366657246726f6d285460208301527f6f6b656e5065726d697373696f6e735b5d207065726d69747465642c61646472838301527f657373207370656e6465722c75696e74323536206e6f6e63652c75696e74323560608301527f3620646561646c696e652c000000000000000000000000000000000000000000608083015282519a8b91816101ca6020850180966110a8565b918237018a815203996102037fffffffffffffffffffffffffffffffffffffffffffffffffffffffffffffffe09b8c8101835282610912565b5190209085515161021381610fd0565b908a5b8181106102a157505061029e999a6102959183516102488161023c60208201809561107b565b03848101835282610912565b519020602089810151858b015195519182019687526040820192909252336060820152608081019190915260a081019390935260643560c08401528260e081015b03908101835282610912565b51902093610e09565b80f35b806102b96102b36102c9938c51610db6565b516110d3565b6102c38286610db6565b5261101f565b610216565b8880fd5b8780fd5b8480fd5b8380fd5b5080fd5b5091346102de5760807ffffffffffffffffffffffffffffffffffffffffffffffffffffffffffffffffc3601126102de5767ffffffffffffffff9080358281116102da576103339036908301610a7b565b6024358381116102d65761034a9036908401610ba4565b93909261035561097b565b916064359081116104475761036c91369101610a35565b9490938351519761037c89610fd0565b98885b81811061042557505061029e979881516103cd816103a160208201809561107b565b037fffffffffffffffffffffffffffffffffffffffffffffffffffffffffffffffe08101835282610912565b5190206020860151828701519083519260208401947ffcf35f5ac6a2c28868dc44c302166470266239195f02b0ee408334829333b7668652840152336060840152608083015260a082015260a08152610295816108f6565b808b6102c38261043c6102b3610442968d51610db6565b92610db6565b61037f565b8680fd5b5082346104b757817ffffffffffffffffffffffffffffffffffffffffffffffffffffffffffffffffc3601126104b7573573ffffffffffffffffffffffffffffffffffffffff81168091036104b757828291602094528084528181206024358252845220549051908152f35b8280fd5b5082346104b757817ffffffffffffffffffffffffffffffffffffffffffffffffffffffffffffffffc3601126104b7577f3704902f963766a4e561bbaab6e6cdc1b1dd12f6e9e99648da8843b3f46b918d90359160243533855284602052818520848652602052818520818154179055815193845260208401523392a280f35b50346102de57817ffffffffffffffffffffffffffffffffffffffffffffffffffffffffffffffffc3601126102de57602090610575610bd5565b9051908152f35b508290346104b7576101007ffffffffffffffffffffffffffffffffffffffffffffffffffffffffffffffffc3601126104b7576105b83661099e565b90807fffffffffffffffffffffffffffffffffffffffffffffffffffffffffffffff7c3601126102da576105ea610953565b9160e43567ffffffffffffffff81116106785761029e9461060d91369101610a35565b93909261061a83516110d3565b6020840151828501519083519260208401947f939c21a48a8dbe3a9a2404a1d46691e4d39f6583d6ec6b35714604c986d801068652840152336060840152608083015260a082015260a0815261066f816108f6565b51902091610c90565b8580fd5b5082346104b7576101407ffffffffffffffffffffffffffffffffffffffffffffffffffffffffffffffffc3601126104b7576106b73661099e565b91807fffffffffffffffffffffffffffffffffffffffffffffffffffffffffffffff7c3601126102da576106e9610953565b67ffffffffffffffff9390610104358581116104475761070c9036908601610a35565b9093610124359687116102d25761072c61066f9661029e98369101610a35565b96909582519061073b826108be565b606482527f5065726d69745769746e6573735472616e7366657246726f6d28546f6b656e5060208301527f65726d697373696f6e73207065726d69747465642c6164647265737320737065848301527f6e6465722c75696e74323536206e6f6e63652c75696e7432353620646561646c60608301527f696e652c0000000000000000000000000000000000000000000000000000000060808301528351948591816107ea6020850180966110a8565b918237018b815203936108237fffffffffffffffffffffffffffffffffffffffffffffffffffffffffffffffe095868101835282610912565b5190209261083186516110d3565b6020878101518589015195519182019687526040820192909252336060820152608081019190915260a081019390935260e43560c08401528260e08101610289565b6060810190811067ffffffffffffffff82111761088f57604052565b7f4e487b7100000000000000000000000000000000000000000000000000000000600052604160045260246000fd5b60a0810190811067ffffffffffffffff82111761088f57604052565b6080810190811067ffffffffffffffff82111761088f57604052565b60c0810190811067ffffffffffffffff82111761088f57604052565b90601f7fffffffffffffffffffffffffffffffffffffffffffffffffffffffffffffffe0910116810190811067ffffffffffffffff82111761088f57604052565b60c4359073ffffffffffffffffffffffffffffffffffffffff8216820361097657565b600080fd5b6044359073ffffffffffffffffffffffffffffffffffffffff8216820361097657565b7ffffffffffffffffffffffffffffffffffffffffffffffffffffffffffffffffc0190608082126109765760408051906109d782610873565b8082941261097657805181810181811067ffffffffffffffff82111761088f57825260043573ffffffffffffffffffffffffffffffffffffffff81168103610976578152602435602082015282526044356020830152606435910152565b9181601f840112156109765782359167ffffffffffffffff8311610976576020838186019501011161097657565b67ffffffffffffffff811161088f5760051b60200190565b919091606081840312610976576040805191610a9683610873565b8294813567ffffffffffffffff9081811161097657830182601f82011215610976578035610ac381610a63565b92610ad087519485610912565b818452602094858086019360061b85010193818511610976579086899897969594939201925b848410610b13575050505050855280820135908501520135910152565b9091929394959697848303126109765788519089820182811085821117610b76578a5284359073ffffffffffffffffffffffffffffffffffffffff82168203610976578289928c9452828701358382015281520193019190889796959493610af6565b602460007f4e487b710000000000000000000000000000000000000000000000000000000081526041600452fd5b9181601f840112156109765782359167ffffffffffffffff8311610976576020808501948460061b01011161097657565b467f000000000000000000000000000000000000000000000000000000000000000003610c20577f000000000000000000000000000000000000000000000000000000000000000090565b60405160208101907f8cad95687ba82c2ce50e74f7b754645e5117c3a5bec8151c0726d5857980a86682527f9ac997416e8ff9d2ff6bebeb7149f65cdae5e32e2b90440b566bb3044041d36a604082015246606082015230608082015260808152610c8a816108be565b51902090565b9192909360a435936040840151804211610d395750602084510151808611610d085750918591610cd0610cd694610ccb602088015186610f5c565b610d6a565b91611146565b73ffffffffffffffffffffffffffffffffffffffff809151511692608435918216820361097657610d0693611435565b565b602490604051907f3728b83d0000000000000000000000000000000000000000000000000000000082526004820152fd5b602490604051907fcd21db4f0000000000000000000000000000000000000000000000000000000082526004820152fd5b610d72610bd5565b906040519060208201927f190100000000000000000000000000000000000000000000000000000000000084526022830152604282015260428152610c8a816108da565b8051821015610dca5760209160051b010190565b7f4e487b7100000000000000000000000000000000000000000000000000000000600052603260045260246000fd5b9190811015610dca5760061b0190565b90919593958151519560409586840151804211610f2c5750828803610f0357610e41918691610cd060209b610ccb8d89015186610f5c565b600091825b878110610e5857505050505050505050565b610e63818351610db6565b5189610e70838689610df9565b0135908a810151808311610ed3575081610e8f575b5050600101610e46565b73ffffffffffffffffffffffffffffffffffffffff80915116610eb384878a610df9565b3591821682036104475791610ecc918960019594611435565b9038610e85565b6024908a51907f3728b83d0000000000000000000000000000000000000000000000000000000082526004820152fd5b600487517fff633a38000000000000000000000000000000000000000000000000000000008152fd5b6024908851907fcd21db4f0000000000000000000000000000000000000000000000000000000082526004820152fd5b9073ffffffffffffffffffffffffffffffffffffffff600160ff83161b9216600052600060205260406000209060081c6000526020526040600020818154188091551615610fa657565b60046040517f756688fe000000000000000000000000000000000000000000000000000000008152fd5b90610fda82610a63565b610fe76040519182610912565b8281527fffffffffffffffffffffffffffffffffffffffffffffffffffffffffffffffe06110158294610a63565b0190602036910137565b7fffffffffffffffffffffffffffffffffffffffffffffffffffffffffffffffff811461104c5760010190565b7f4e487b7100000000000000000000000000000000000000000000000000000000600052601160045260246000fd5b805160208092019160005b828110611094575050505090565b835185529381019392810192600101611086565b9081519160005b8381106110c0575050016000815290565b80602080928401015181850152016110af565b6040516020808201927f618358ac3db8dc274f0cd8829da7e234bd48cd73c4a740aede1adec9846d06a1845273ffffffffffffffffffffffffffffffffffffffff81511660408401520151606082015260608152610c8a816108da565b9190826040910312610976576020823592013590565b6000843b6112ad57506041820361122b5761116382820182611130565b93909260401015610dca5760209360009360ff6040608095013560f81c5b60405194855216868401526040830152606082015282805260015afa1561121f5773ffffffffffffffffffffffffffffffffffffffff80600051169182156111f55716036111cb57565b60046040517f815e1d64000000000000000000000000000000000000000000000000000000008152fd5b60046040517f8baa579f000000000000000000000000000000000000000000000000000000008152fd5b6040513d6000823e3d90fd5b604082036112835761123f91810190611130565b91601b7f7fffffffffffffffffffffffffffffffffffffffffffffffffffffffffffffff84169360ff1c019060ff821161104c5760209360009360ff608094611181565b60046040517f4be6321b000000000000000000000000000000000000000000000000000000008152fd5b929391601f928173ffffffffffffffffffffffffffffffffffffffff60646020957fffffffffffffffffffffffffffffffffffffffffffffffffffffffffffffffe0604051988997889687947f1626ba7e000000000000000000000000000000000000000000000000000000009e8f8752600487015260406024870152816044870152868601378b85828601015201168101030192165afa90811561142a5782916113a9575b507fffffffff000000000000000000000000000000000000000000000000000000009150160361137f57565b60046040517fb0669cbc000000000000000000000000000000000000000000000000000000008152fd5b90506020813d8211611422575b816113c360209383610912565b810103126102de5751907fffffffff000000000000000000000000000000000000000000000000000000008216820361141f57507fffffffff000000000000000000000000000000000000000000000000000000009038611353565b80fd5b3d91506113b6565b6040513d84823e3d90fd5b9160008093602095606494604051947f23b872dd00000000000000000000000000000000000000000000000000000000865273ffffffffffffffffffffffffffffffffffffffff809216600487015216602485015260448401525af13d15601f3d11600160005114161716156114a757565b60646040517f08c379a000000000000000000000000000000000000000000000000000000000815260206004820152601460248201527f5452414e534645525f46524f4d5f4641494c45440000000000000000000000006044820152fdfea2646970667358221220e687432f309f3dcaef1b5d5ec62c69c71986abf6d1467b6fe0e84bebd28a397064736f6c63430008110033","opcodes":"PUSH1 0xC0 CALLVALUE PUSH2 0xBB JUMPI CHAINID PUSH1 0xA0 MSTORE PUSH1 0x20 DUP2 ADD PUSH32 0x8CAD95687BA82C2CE50E74F7B754645E5117C3A5BEC8151C0726D5857980A866 DUP2 MSTORE PUSH32 0x9AC997416E8FF9D2FF6BEBEB7149F65CDAE5E32E2B90440B566BB3044041D36A PUSH1 0x40 DUP4 ADD MSTORE CHAINID PUSH1 0x60 DUP4 ADD MSTORE ADDRESS PUSH1 0x80 DUP4 ADD MSTORE PUSH1 0x80 DUP3 MSTORE PUSH1 0xA0 DUP3 ADD SWAP2 DUP1 DUP4 LT PUSH1 0x1 DUP1 PUSH1 0x40 SHL SUB DUP5 GT OR PUSH2 0xA5 JUMPI DUP3 PUSH1 0x40 MSTORE MLOAD SWAP1 KECCAK256 PUSH1 0x80 MSTORE PUSH2 0x153B SWAP1 DUP2 PUSH2 0xC1 DUP3 CODECOPY PUSH1 0x80 MLOAD DUP2 PUSH2 0xBFE ADD MSTORE PUSH1 0xA0 MLOAD DUP2 PUSH2 0xBD8 ADD MSTORE RETURN JUMPDEST PUSH4 0x4E487B71 PUSH1 0xE0 SHL PUSH1 0x0 MSTORE PUSH1 0x41 PUSH1 0x4 MSTORE PUSH1 0x24 PUSH1 0x0 REVERT JUMPDEST PUSH1 0x0 DUP1 REVERT INVALID PUSH1 0x40 PUSH1 0x80 DUP2 MSTORE PUSH1 0x4 SWAP1 DUP2 CALLDATASIZE LT ISZERO PUSH2 0x15 JUMPI PUSH1 0x0 DUP1 REVERT JUMPDEST PUSH1 0x0 SWAP1 DUP2 CALLDATALOAD PUSH1 0xE0 SHR DUP1 PUSH4 0x137C29FE EQ PUSH2 0x67C JUMPI DUP1 PUSH4 0x30F28B7A EQ PUSH2 0x57C JUMPI DUP1 PUSH4 0x3644E515 EQ PUSH2 0x53B JUMPI DUP1 PUSH4 0x3FF9DCB1 EQ PUSH2 0x4BB JUMPI DUP1 PUSH4 0x4FE02B44 EQ PUSH2 0x44B JUMPI DUP1 PUSH4 0xEDD9444B EQ PUSH2 0x2E2 JUMPI PUSH4 0xFE8EC1A7 EQ PUSH2 0x6E JUMPI PUSH1 0x0 DUP1 REVERT JUMPDEST CALLVALUE PUSH2 0x2DE JUMPI PUSH1 0xC0 PUSH32 0xFFFFFFFFFFFFFFFFFFFFFFFFFFFFFFFFFFFFFFFFFFFFFFFFFFFFFFFFFFFFFFFC CALLDATASIZE ADD SLT PUSH2 0x2DE JUMPI PUSH8 0xFFFFFFFFFFFFFFFF DUP4 CALLDATALOAD DUP2 DUP2 GT PUSH2 0x2DA JUMPI PUSH2 0xBC SWAP1 CALLDATASIZE SWAP1 DUP7 ADD PUSH2 0xA7B JUMP JUMPDEST PUSH1 0x24 CALLDATALOAD DUP3 DUP2 GT PUSH2 0x2D6 JUMPI PUSH2 0xD3 SWAP1 CALLDATASIZE SWAP1 DUP8 ADD PUSH2 0xBA4 JUMP JUMPDEST PUSH2 0xDB PUSH2 0x97B JUMP JUMPDEST SWAP2 PUSH1 0x84 CALLDATALOAD DUP6 DUP2 GT PUSH2 0x2D2 JUMPI PUSH2 0xF3 SWAP1 CALLDATASIZE SWAP1 DUP11 ADD PUSH2 0xA35 JUMP JUMPDEST SWAP9 SWAP1 SWAP6 PUSH1 0xA4 CALLDATALOAD SWAP1 DUP2 GT PUSH2 0x2CE JUMPI PUSH2 0x10C SWAP2 CALLDATASIZE SWAP2 ADD PUSH2 0xA35 JUMP JUMPDEST SWAP7 SWAP1 SWAP6 DUP2 MLOAD SWAP1 PUSH2 0x11B DUP3 PUSH2 0x8BE JUMP JUMPDEST PUSH1 0x6B DUP3 MSTORE PUSH32 0x5065726D697442617463685769746E6573735472616E7366657246726F6D2854 PUSH1 0x20 DUP4 ADD MSTORE PUSH32 0x6F6B656E5065726D697373696F6E735B5D207065726D69747465642C61646472 DUP4 DUP4 ADD MSTORE PUSH32 0x657373207370656E6465722C75696E74323536206E6F6E63652C75696E743235 PUSH1 0x60 DUP4 ADD MSTORE PUSH32 0x3620646561646C696E652C000000000000000000000000000000000000000000 PUSH1 0x80 DUP4 ADD MSTORE DUP3 MLOAD SWAP11 DUP12 SWAP2 DUP2 PUSH2 0x1CA PUSH1 0x20 DUP6 ADD DUP1 SWAP7 PUSH2 0x10A8 JUMP JUMPDEST SWAP2 DUP3 CALLDATACOPY ADD DUP11 DUP2 MSTORE SUB SWAP10 PUSH2 0x203 PUSH32 0xFFFFFFFFFFFFFFFFFFFFFFFFFFFFFFFFFFFFFFFFFFFFFFFFFFFFFFFFFFFFFFE0 SWAP12 DUP13 DUP2 ADD DUP4 MSTORE DUP3 PUSH2 0x912 JUMP JUMPDEST MLOAD SWAP1 KECCAK256 SWAP1 DUP6 MLOAD MLOAD PUSH2 0x213 DUP2 PUSH2 0xFD0 JUMP JUMPDEST SWAP1 DUP11 JUMPDEST DUP2 DUP2 LT PUSH2 0x2A1 JUMPI POP POP PUSH2 0x29E SWAP10 SWAP11 PUSH2 0x295 SWAP2 DUP4 MLOAD PUSH2 0x248 DUP2 PUSH2 0x23C PUSH1 0x20 DUP3 ADD DUP1 SWAP6 PUSH2 0x107B JUMP JUMPDEST SUB DUP5 DUP2 ADD DUP4 MSTORE DUP3 PUSH2 0x912 JUMP JUMPDEST MLOAD SWAP1 KECCAK256 PUSH1 0x20 DUP10 DUP2 ADD MLOAD DUP6 DUP12 ADD MLOAD SWAP6 MLOAD SWAP2 DUP3 ADD SWAP7 DUP8 MSTORE PUSH1 0x40 DUP3 ADD SWAP3 SWAP1 SWAP3 MSTORE CALLER PUSH1 0x60 DUP3 ADD MSTORE PUSH1 0x80 DUP2 ADD SWAP2 SWAP1 SWAP2 MSTORE PUSH1 0xA0 DUP2 ADD SWAP4 SWAP1 SWAP4 MSTORE PUSH1 0x64 CALLDATALOAD PUSH1 0xC0 DUP5 ADD MSTORE DUP3 PUSH1 0xE0 DUP2 ADD JUMPDEST SUB SWAP1 DUP2 ADD DUP4 MSTORE DUP3 PUSH2 0x912 JUMP JUMPDEST MLOAD SWAP1 KECCAK256 SWAP4 PUSH2 0xE09 JUMP JUMPDEST DUP1 RETURN JUMPDEST DUP1 PUSH2 0x2B9 PUSH2 0x2B3 PUSH2 0x2C9 SWAP4 DUP13 MLOAD PUSH2 0xDB6 JUMP JUMPDEST MLOAD PUSH2 0x10D3 JUMP JUMPDEST PUSH2 0x2C3 DUP3 DUP7 PUSH2 0xDB6 JUMP JUMPDEST MSTORE PUSH2 0x101F JUMP JUMPDEST PUSH2 0x216 JUMP JUMPDEST DUP9 DUP1 REVERT JUMPDEST DUP8 DUP1 REVERT JUMPDEST DUP5 DUP1 REVERT JUMPDEST DUP4 DUP1 REVERT JUMPDEST POP DUP1 REVERT JUMPDEST POP SWAP2 CALLVALUE PUSH2 0x2DE JUMPI PUSH1 0x80 PUSH32 0xFFFFFFFFFFFFFFFFFFFFFFFFFFFFFFFFFFFFFFFFFFFFFFFFFFFFFFFFFFFFFFFC CALLDATASIZE ADD SLT PUSH2 0x2DE JUMPI PUSH8 0xFFFFFFFFFFFFFFFF SWAP1 DUP1 CALLDATALOAD DUP3 DUP2 GT PUSH2 0x2DA JUMPI PUSH2 0x333 SWAP1 CALLDATASIZE SWAP1 DUP4 ADD PUSH2 0xA7B JUMP JUMPDEST PUSH1 0x24 CALLDATALOAD DUP4 DUP2 GT PUSH2 0x2D6 JUMPI PUSH2 0x34A SWAP1 CALLDATASIZE SWAP1 DUP5 ADD PUSH2 0xBA4 JUMP JUMPDEST SWAP4 SWAP1 SWAP3 PUSH2 0x355 PUSH2 0x97B JUMP JUMPDEST SWAP2 PUSH1 0x64 CALLDATALOAD SWAP1 DUP2 GT PUSH2 0x447 JUMPI PUSH2 0x36C SWAP2 CALLDATASIZE SWAP2 ADD PUSH2 0xA35 JUMP JUMPDEST SWAP5 SWAP1 SWAP4 DUP4 MLOAD MLOAD SWAP8 PUSH2 0x37C DUP10 PUSH2 0xFD0 JUMP JUMPDEST SWAP9 DUP9 JUMPDEST DUP2 DUP2 LT PUSH2 0x425 JUMPI POP POP PUSH2 0x29E SWAP8 SWAP9 DUP2 MLOAD PUSH2 0x3CD DUP2 PUSH2 0x3A1 PUSH1 0x20 DUP3 ADD DUP1 SWAP6 PUSH2 0x107B JUMP JUMPDEST SUB PUSH32 0xFFFFFFFFFFFFFFFFFFFFFFFFFFFFFFFFFFFFFFFFFFFFFFFFFFFFFFFFFFFFFFE0 DUP2 ADD DUP4 MSTORE DUP3 PUSH2 0x912 JUMP JUMPDEST MLOAD SWAP1 KECCAK256 PUSH1 0x20 DUP7 ADD MLOAD DUP3 DUP8 ADD MLOAD SWAP1 DUP4 MLOAD SWAP3 PUSH1 0x20 DUP5 ADD SWAP5 PUSH32 0xFCF35F5AC6A2C28868DC44C302166470266239195F02B0EE408334829333B766 DUP7 MSTORE DUP5 ADD MSTORE CALLER PUSH1 0x60 DUP5 ADD MSTORE PUSH1 0x80 DUP4 ADD MSTORE PUSH1 0xA0 DUP3 ADD MSTORE PUSH1 0xA0 DUP2 MSTORE PUSH2 0x295 DUP2 PUSH2 0x8F6 JUMP JUMPDEST DUP1 DUP12 PUSH2 0x2C3 DUP3 PUSH2 0x43C PUSH2 0x2B3 PUSH2 0x442 SWAP7 DUP14 MLOAD PUSH2 0xDB6 JUMP JUMPDEST SWAP3 PUSH2 0xDB6 JUMP JUMPDEST PUSH2 0x37F JUMP JUMPDEST DUP7 DUP1 REVERT JUMPDEST POP DUP3 CALLVALUE PUSH2 0x4B7 JUMPI DUP2 PUSH32 0xFFFFFFFFFFFFFFFFFFFFFFFFFFFFFFFFFFFFFFFFFFFFFFFFFFFFFFFFFFFFFFFC CALLDATASIZE ADD SLT PUSH2 0x4B7 JUMPI CALLDATALOAD PUSH20 0xFFFFFFFFFFFFFFFFFFFFFFFFFFFFFFFFFFFFFFFF DUP2 AND DUP1 SWAP2 SUB PUSH2 0x4B7 JUMPI DUP3 DUP3 SWAP2 PUSH1 0x20 SWAP5 MSTORE DUP1 DUP5 MSTORE DUP2 DUP2 KECCAK256 PUSH1 0x24 CALLDATALOAD DUP3 MSTORE DUP5 MSTORE KECCAK256 SLOAD SWAP1 MLOAD SWAP1 DUP2 MSTORE RETURN JUMPDEST DUP3 DUP1 REVERT JUMPDEST POP DUP3 CALLVALUE PUSH2 0x4B7 JUMPI DUP2 PUSH32 0xFFFFFFFFFFFFFFFFFFFFFFFFFFFFFFFFFFFFFFFFFFFFFFFFFFFFFFFFFFFFFFFC CALLDATASIZE ADD SLT PUSH2 0x4B7 JUMPI PUSH32 0x3704902F963766A4E561BBAAB6E6CDC1B1DD12F6E9E99648DA8843B3F46B918D SWAP1 CALLDATALOAD SWAP2 PUSH1 0x24 CALLDATALOAD CALLER DUP6 MSTORE DUP5 PUSH1 0x20 MSTORE DUP2 DUP6 KECCAK256 DUP5 DUP7 MSTORE PUSH1 0x20 MSTORE DUP2 DUP6 KECCAK256 DUP2 DUP2 SLOAD OR SWAP1 SSTORE DUP2 MLOAD SWAP4 DUP5 MSTORE PUSH1 0x20 DUP5 ADD MSTORE CALLER SWAP3 LOG2 DUP1 RETURN JUMPDEST POP CALLVALUE PUSH2 0x2DE JUMPI DUP2 PUSH32 0xFFFFFFFFFFFFFFFFFFFFFFFFFFFFFFFFFFFFFFFFFFFFFFFFFFFFFFFFFFFFFFFC CALLDATASIZE ADD SLT PUSH2 0x2DE JUMPI PUSH1 0x20 SWAP1 PUSH2 0x575 PUSH2 0xBD5 JUMP JUMPDEST SWAP1 MLOAD SWAP1 DUP2 MSTORE RETURN JUMPDEST POP DUP3 SWAP1 CALLVALUE PUSH2 0x4B7 JUMPI PUSH2 0x100 PUSH32 0xFFFFFFFFFFFFFFFFFFFFFFFFFFFFFFFFFFFFFFFFFFFFFFFFFFFFFFFFFFFFFFFC CALLDATASIZE ADD SLT PUSH2 0x4B7 JUMPI PUSH2 0x5B8 CALLDATASIZE PUSH2 0x99E JUMP JUMPDEST SWAP1 DUP1 PUSH32 0xFFFFFFFFFFFFFFFFFFFFFFFFFFFFFFFFFFFFFFFFFFFFFFFFFFFFFFFFFFFFFF7C CALLDATASIZE ADD SLT PUSH2 0x2DA JUMPI PUSH2 0x5EA PUSH2 0x953 JUMP JUMPDEST SWAP2 PUSH1 0xE4 CALLDATALOAD PUSH8 0xFFFFFFFFFFFFFFFF DUP2 GT PUSH2 0x678 JUMPI PUSH2 0x29E SWAP5 PUSH2 0x60D SWAP2 CALLDATASIZE SWAP2 ADD PUSH2 0xA35 JUMP JUMPDEST SWAP4 SWAP1 SWAP3 PUSH2 0x61A DUP4 MLOAD PUSH2 0x10D3 JUMP JUMPDEST PUSH1 0x20 DUP5 ADD MLOAD DUP3 DUP6 ADD MLOAD SWAP1 DUP4 MLOAD SWAP3 PUSH1 0x20 DUP5 ADD SWAP5 PUSH32 0x939C21A48A8DBE3A9A2404A1D46691E4D39F6583D6EC6B35714604C986D80106 DUP7 MSTORE DUP5 ADD MSTORE CALLER PUSH1 0x60 DUP5 ADD MSTORE PUSH1 0x80 DUP4 ADD MSTORE PUSH1 0xA0 DUP3 ADD MSTORE PUSH1 0xA0 DUP2 MSTORE PUSH2 0x66F DUP2 PUSH2 0x8F6 JUMP JUMPDEST MLOAD SWAP1 KECCAK256 SWAP2 PUSH2 0xC90 JUMP JUMPDEST DUP6 DUP1 REVERT JUMPDEST POP DUP3 CALLVALUE PUSH2 0x4B7 JUMPI PUSH2 0x140 PUSH32 0xFFFFFFFFFFFFFFFFFFFFFFFFFFFFFFFFFFFFFFFFFFFFFFFFFFFFFFFFFFFFFFFC CALLDATASIZE ADD SLT PUSH2 0x4B7 JUMPI PUSH2 0x6B7 CALLDATASIZE PUSH2 0x99E JUMP JUMPDEST SWAP2 DUP1 PUSH32 0xFFFFFFFFFFFFFFFFFFFFFFFFFFFFFFFFFFFFFFFFFFFFFFFFFFFFFFFFFFFFFF7C CALLDATASIZE ADD SLT PUSH2 0x2DA JUMPI PUSH2 0x6E9 PUSH2 0x953 JUMP JUMPDEST PUSH8 0xFFFFFFFFFFFFFFFF SWAP4 SWAP1 PUSH2 0x104 CALLDATALOAD DUP6 DUP2 GT PUSH2 0x447 JUMPI PUSH2 0x70C SWAP1 CALLDATASIZE SWAP1 DUP7 ADD PUSH2 0xA35 JUMP JUMPDEST SWAP1 SWAP4 PUSH2 0x124 CALLDATALOAD SWAP7 DUP8 GT PUSH2 0x2D2 JUMPI PUSH2 0x72C PUSH2 0x66F SWAP7 PUSH2 0x29E SWAP9 CALLDATASIZE SWAP2 ADD PUSH2 0xA35 JUMP JUMPDEST SWAP7 SWAP1 SWAP6 DUP3 MLOAD SWAP1 PUSH2 0x73B DUP3 PUSH2 0x8BE JUMP JUMPDEST PUSH1 0x64 DUP3 MSTORE PUSH32 0x5065726D69745769746E6573735472616E7366657246726F6D28546F6B656E50 PUSH1 0x20 DUP4 ADD MSTORE PUSH32 0x65726D697373696F6E73207065726D69747465642C6164647265737320737065 DUP5 DUP4 ADD MSTORE PUSH32 0x6E6465722C75696E74323536206E6F6E63652C75696E7432353620646561646C PUSH1 0x60 DUP4 ADD MSTORE PUSH32 0x696E652C00000000000000000000000000000000000000000000000000000000 PUSH1 0x80 DUP4 ADD MSTORE DUP4 MLOAD SWAP5 DUP6 SWAP2 DUP2 PUSH2 0x7EA PUSH1 0x20 DUP6 ADD DUP1 SWAP7 PUSH2 0x10A8 JUMP JUMPDEST SWAP2 DUP3 CALLDATACOPY ADD DUP12 DUP2 MSTORE SUB SWAP4 PUSH2 0x823 PUSH32 0xFFFFFFFFFFFFFFFFFFFFFFFFFFFFFFFFFFFFFFFFFFFFFFFFFFFFFFFFFFFFFFE0 SWAP6 DUP7 DUP2 ADD DUP4 MSTORE DUP3 PUSH2 0x912 JUMP JUMPDEST MLOAD SWAP1 KECCAK256 SWAP3 PUSH2 0x831 DUP7 MLOAD PUSH2 0x10D3 JUMP JUMPDEST PUSH1 0x20 DUP8 DUP2 ADD MLOAD DUP6 DUP10 ADD MLOAD SWAP6 MLOAD SWAP2 DUP3 ADD SWAP7 DUP8 MSTORE PUSH1 0x40 DUP3 ADD SWAP3 SWAP1 SWAP3 MSTORE CALLER PUSH1 0x60 DUP3 ADD MSTORE PUSH1 0x80 DUP2 ADD SWAP2 SWAP1 SWAP2 MSTORE PUSH1 0xA0 DUP2 ADD SWAP4 SWAP1 SWAP4 MSTORE PUSH1 0xE4 CALLDATALOAD PUSH1 0xC0 DUP5 ADD MSTORE DUP3 PUSH1 0xE0 DUP2 ADD PUSH2 0x289 JUMP JUMPDEST PUSH1 0x60 DUP2 ADD SWAP1 DUP2 LT PUSH8 0xFFFFFFFFFFFFFFFF DUP3 GT OR PUSH2 0x88F JUMPI PUSH1 0x40 MSTORE JUMP JUMPDEST PUSH32 0x4E487B7100000000000000000000000000000000000000000000000000000000 PUSH1 0x0 MSTORE PUSH1 0x41 PUSH1 0x4 MSTORE PUSH1 0x24 PUSH1 0x0 REVERT JUMPDEST PUSH1 0xA0 DUP2 ADD SWAP1 DUP2 LT PUSH8 0xFFFFFFFFFFFFFFFF DUP3 GT OR PUSH2 0x88F JUMPI PUSH1 0x40 MSTORE JUMP JUMPDEST PUSH1 0x80 DUP2 ADD SWAP1 DUP2 LT PUSH8 0xFFFFFFFFFFFFFFFF DUP3 GT OR PUSH2 0x88F JUMPI PUSH1 0x40 MSTORE JUMP JUMPDEST PUSH1 0xC0 DUP2 ADD SWAP1 DUP2 LT PUSH8 0xFFFFFFFFFFFFFFFF DUP3 GT OR PUSH2 0x88F JUMPI PUSH1 0x40 MSTORE JUMP JUMPDEST SWAP1 PUSH1 0x1F PUSH32 0xFFFFFFFFFFFFFFFFFFFFFFFFFFFFFFFFFFFFFFFFFFFFFFFFFFFFFFFFFFFFFFE0 SWAP2 ADD AND DUP2 ADD SWAP1 DUP2 LT PUSH8 0xFFFFFFFFFFFFFFFF DUP3 GT OR PUSH2 0x88F JUMPI PUSH1 0x40 MSTORE JUMP JUMPDEST PUSH1 0xC4 CALLDATALOAD SWAP1 PUSH20 0xFFFFFFFFFFFFFFFFFFFFFFFFFFFFFFFFFFFFFFFF DUP3 AND DUP3 SUB PUSH2 0x976 JUMPI JUMP JUMPDEST PUSH1 0x0 DUP1 REVERT JUMPDEST PUSH1 0x44 CALLDATALOAD SWAP1 PUSH20 0xFFFFFFFFFFFFFFFFFFFFFFFFFFFFFFFFFFFFFFFF DUP3 AND DUP3 SUB PUSH2 0x976 JUMPI JUMP JUMPDEST PUSH32 0xFFFFFFFFFFFFFFFFFFFFFFFFFFFFFFFFFFFFFFFFFFFFFFFFFFFFFFFFFFFFFFFC ADD SWAP1 PUSH1 0x80 DUP3 SLT PUSH2 0x976 JUMPI PUSH1 0x40 DUP1 MLOAD SWAP1 PUSH2 0x9D7 DUP3 PUSH2 0x873 JUMP JUMPDEST DUP1 DUP3 SWAP5 SLT PUSH2 0x976 JUMPI DUP1 MLOAD DUP2 DUP2 ADD DUP2 DUP2 LT PUSH8 0xFFFFFFFFFFFFFFFF DUP3 GT OR PUSH2 0x88F JUMPI DUP3 MSTORE PUSH1 0x4 CALLDATALOAD PUSH20 0xFFFFFFFFFFFFFFFFFFFFFFFFFFFFFFFFFFFFFFFF DUP2 AND DUP2 SUB PUSH2 0x976 JUMPI DUP2 MSTORE PUSH1 0x24 CALLDATALOAD PUSH1 0x20 DUP3 ADD MSTORE DUP3 MSTORE PUSH1 0x44 CALLDATALOAD PUSH1 0x20 DUP4 ADD MSTORE PUSH1 0x64 CALLDATALOAD SWAP2 ADD MSTORE JUMP JUMPDEST SWAP2 DUP2 PUSH1 0x1F DUP5 ADD SLT ISZERO PUSH2 0x976 JUMPI DUP3 CALLDATALOAD SWAP2 PUSH8 0xFFFFFFFFFFFFFFFF DUP4 GT PUSH2 0x976 JUMPI PUSH1 0x20 DUP4 DUP2 DUP7 ADD SWAP6 ADD ADD GT PUSH2 0x976 JUMPI JUMP JUMPDEST PUSH8 0xFFFFFFFFFFFFFFFF DUP2 GT PUSH2 0x88F JUMPI PUSH1 0x5 SHL PUSH1 0x20 ADD SWAP1 JUMP JUMPDEST SWAP2 SWAP1 SWAP2 PUSH1 0x60 DUP2 DUP5 SUB SLT PUSH2 0x976 JUMPI PUSH1 0x40 DUP1 MLOAD SWAP2 PUSH2 0xA96 DUP4 PUSH2 0x873 JUMP JUMPDEST DUP3 SWAP5 DUP2 CALLDATALOAD PUSH8 0xFFFFFFFFFFFFFFFF SWAP1 DUP2 DUP2 GT PUSH2 0x976 JUMPI DUP4 ADD DUP3 PUSH1 0x1F DUP3 ADD SLT ISZERO PUSH2 0x976 JUMPI DUP1 CALLDATALOAD PUSH2 0xAC3 DUP2 PUSH2 0xA63 JUMP JUMPDEST SWAP3 PUSH2 0xAD0 DUP8 MLOAD SWAP5 DUP6 PUSH2 0x912 JUMP JUMPDEST DUP2 DUP5 MSTORE PUSH1 0x20 SWAP5 DUP6 DUP1 DUP7 ADD SWAP4 PUSH1 0x6 SHL DUP6 ADD ADD SWAP4 DUP2 DUP6 GT PUSH2 0x976 JUMPI SWAP1 DUP7 DUP10 SWAP9 SWAP8 SWAP7 SWAP6 SWAP5 SWAP4 SWAP3 ADD SWAP3 JUMPDEST DUP5 DUP5 LT PUSH2 0xB13 JUMPI POP POP POP POP POP DUP6 MSTORE DUP1 DUP3 ADD CALLDATALOAD SWAP1 DUP6 ADD MSTORE ADD CALLDATALOAD SWAP2 ADD MSTORE JUMP JUMPDEST SWAP1 SWAP2 SWAP3 SWAP4 SWAP5 SWAP6 SWAP7 SWAP8 DUP5 DUP4 SUB SLT PUSH2 0x976 JUMPI DUP9 MLOAD SWAP1 DUP10 DUP3 ADD DUP3 DUP2 LT DUP6 DUP3 GT OR PUSH2 0xB76 JUMPI DUP11 MSTORE DUP5 CALLDATALOAD SWAP1 PUSH20 0xFFFFFFFFFFFFFFFFFFFFFFFFFFFFFFFFFFFFFFFF DUP3 AND DUP3 SUB PUSH2 0x976 JUMPI DUP3 DUP10 SWAP3 DUP13 SWAP5 MSTORE DUP3 DUP8 ADD CALLDATALOAD DUP4 DUP3 ADD MSTORE DUP2 MSTORE ADD SWAP4 ADD SWAP2 SWAP1 DUP9 SWAP8 SWAP7 SWAP6 SWAP5 SWAP4 PUSH2 0xAF6 JUMP JUMPDEST PUSH1 0x24 PUSH1 0x0 PUSH32 0x4E487B7100000000000000000000000000000000000000000000000000000000 DUP2 MSTORE PUSH1 0x41 PUSH1 0x4 MSTORE REVERT JUMPDEST SWAP2 DUP2 PUSH1 0x1F DUP5 ADD SLT ISZERO PUSH2 0x976 JUMPI DUP3 CALLDATALOAD SWAP2 PUSH8 0xFFFFFFFFFFFFFFFF DUP4 GT PUSH2 0x976 JUMPI PUSH1 0x20 DUP1 DUP6 ADD SWAP5 DUP5 PUSH1 0x6 SHL ADD ADD GT PUSH2 0x976 JUMPI JUMP JUMPDEST CHAINID PUSH32 0x0 SUB PUSH2 0xC20 JUMPI PUSH32 0x0 SWAP1 JUMP JUMPDEST PUSH1 0x40 MLOAD PUSH1 0x20 DUP2 ADD SWAP1 PUSH32 0x8CAD95687BA82C2CE50E74F7B754645E5117C3A5BEC8151C0726D5857980A866 DUP3 MSTORE PUSH32 0x9AC997416E8FF9D2FF6BEBEB7149F65CDAE5E32E2B90440B566BB3044041D36A PUSH1 0x40 DUP3 ADD MSTORE CHAINID PUSH1 0x60 DUP3 ADD MSTORE ADDRESS PUSH1 0x80 DUP3 ADD MSTORE PUSH1 0x80 DUP2 MSTORE PUSH2 0xC8A DUP2 PUSH2 0x8BE JUMP JUMPDEST MLOAD SWAP1 KECCAK256 SWAP1 JUMP JUMPDEST SWAP2 SWAP3 SWAP1 SWAP4 PUSH1 0xA4 CALLDATALOAD SWAP4 PUSH1 0x40 DUP5 ADD MLOAD DUP1 TIMESTAMP GT PUSH2 0xD39 JUMPI POP PUSH1 0x20 DUP5 MLOAD ADD MLOAD DUP1 DUP7 GT PUSH2 0xD08 JUMPI POP SWAP2 DUP6 SWAP2 PUSH2 0xCD0 PUSH2 0xCD6 SWAP5 PUSH2 0xCCB PUSH1 0x20 DUP9 ADD MLOAD DUP7 PUSH2 0xF5C JUMP JUMPDEST PUSH2 0xD6A JUMP JUMPDEST SWAP2 PUSH2 0x1146 JUMP JUMPDEST PUSH20 0xFFFFFFFFFFFFFFFFFFFFFFFFFFFFFFFFFFFFFFFF DUP1 SWAP2 MLOAD MLOAD AND SWAP3 PUSH1 0x84 CALLDATALOAD SWAP2 DUP3 AND DUP3 SUB PUSH2 0x976 JUMPI PUSH2 0xD06 SWAP4 PUSH2 0x1435 JUMP JUMPDEST JUMP JUMPDEST PUSH1 0x24 SWAP1 PUSH1 0x40 MLOAD SWAP1 PUSH32 0x3728B83D00000000000000000000000000000000000000000000000000000000 DUP3 MSTORE PUSH1 0x4 DUP3 ADD MSTORE REVERT JUMPDEST PUSH1 0x24 SWAP1 PUSH1 0x40 MLOAD SWAP1 PUSH32 0xCD21DB4F00000000000000000000000000000000000000000000000000000000 DUP3 MSTORE PUSH1 0x4 DUP3 ADD MSTORE REVERT JUMPDEST PUSH2 0xD72 PUSH2 0xBD5 JUMP JUMPDEST SWAP1 PUSH1 0x40 MLOAD SWAP1 PUSH1 0x20 DUP3 ADD SWAP3 PUSH32 0x1901000000000000000000000000000000000000000000000000000000000000 DUP5 MSTORE PUSH1 0x22 DUP4 ADD MSTORE PUSH1 0x42 DUP3 ADD MSTORE PUSH1 0x42 DUP2 MSTORE PUSH2 0xC8A DUP2 PUSH2 0x8DA JUMP JUMPDEST DUP1 MLOAD DUP3 LT ISZERO PUSH2 0xDCA JUMPI PUSH1 0x20 SWAP2 PUSH1 0x5 SHL ADD ADD SWAP1 JUMP JUMPDEST PUSH32 0x4E487B7100000000000000000000000000000000000000000000000000000000 PUSH1 0x0 MSTORE PUSH1 0x32 PUSH1 0x4 MSTORE PUSH1 0x24 PUSH1 0x0 REVERT JUMPDEST SWAP2 SWAP1 DUP2 LT ISZERO PUSH2 0xDCA JUMPI PUSH1 0x6 SHL ADD SWAP1 JUMP JUMPDEST SWAP1 SWAP2 SWAP6 SWAP4 SWAP6 DUP2 MLOAD MLOAD SWAP6 PUSH1 0x40 SWAP6 DUP7 DUP5 ADD MLOAD DUP1 TIMESTAMP GT PUSH2 0xF2C JUMPI POP DUP3 DUP9 SUB PUSH2 0xF03 JUMPI PUSH2 0xE41 SWAP2 DUP7 SWAP2 PUSH2 0xCD0 PUSH1 0x20 SWAP12 PUSH2 0xCCB DUP14 DUP10 ADD MLOAD DUP7 PUSH2 0xF5C JUMP JUMPDEST PUSH1 0x0 SWAP2 DUP3 JUMPDEST DUP8 DUP2 LT PUSH2 0xE58 JUMPI POP POP POP POP POP POP POP POP POP JUMP JUMPDEST PUSH2 0xE63 DUP2 DUP4 MLOAD PUSH2 0xDB6 JUMP JUMPDEST MLOAD DUP10 PUSH2 0xE70 DUP4 DUP7 DUP10 PUSH2 0xDF9 JUMP JUMPDEST ADD CALLDATALOAD SWAP1 DUP11 DUP2 ADD MLOAD DUP1 DUP4 GT PUSH2 0xED3 JUMPI POP DUP2 PUSH2 0xE8F JUMPI JUMPDEST POP POP PUSH1 0x1 ADD PUSH2 0xE46 JUMP JUMPDEST PUSH20 0xFFFFFFFFFFFFFFFFFFFFFFFFFFFFFFFFFFFFFFFF DUP1 SWAP2 MLOAD AND PUSH2 0xEB3 DUP5 DUP8 DUP11 PUSH2 0xDF9 JUMP JUMPDEST CALLDATALOAD SWAP2 DUP3 AND DUP3 SUB PUSH2 0x447 JUMPI SWAP2 PUSH2 0xECC SWAP2 DUP10 PUSH1 0x1 SWAP6 SWAP5 PUSH2 0x1435 JUMP JUMPDEST SWAP1 CODESIZE PUSH2 0xE85 JUMP JUMPDEST PUSH1 0x24 SWAP1 DUP11 MLOAD SWAP1 PUSH32 0x3728B83D00000000000000000000000000000000000000000000000000000000 DUP3 MSTORE PUSH1 0x4 DUP3 ADD MSTORE REVERT JUMPDEST PUSH1 0x4 DUP8 MLOAD PUSH32 0xFF633A3800000000000000000000000000000000000000000000000000000000 DUP2 MSTORE REVERT JUMPDEST PUSH1 0x24 SWAP1 DUP9 MLOAD SWAP1 PUSH32 0xCD21DB4F00000000000000000000000000000000000000000000000000000000 DUP3 MSTORE PUSH1 0x4 DUP3 ADD MSTORE REVERT JUMPDEST SWAP1 PUSH20 0xFFFFFFFFFFFFFFFFFFFFFFFFFFFFFFFFFFFFFFFF PUSH1 0x1 PUSH1 0xFF DUP4 AND SHL SWAP3 AND PUSH1 0x0 MSTORE PUSH1 0x0 PUSH1 0x20 MSTORE PUSH1 0x40 PUSH1 0x0 KECCAK256 SWAP1 PUSH1 0x8 SHR PUSH1 0x0 MSTORE PUSH1 0x20 MSTORE PUSH1 0x40 PUSH1 0x0 KECCAK256 DUP2 DUP2 SLOAD XOR DUP1 SWAP2 SSTORE AND ISZERO PUSH2 0xFA6 JUMPI JUMP JUMPDEST PUSH1 0x4 PUSH1 0x40 MLOAD PUSH32 0x756688FE00000000000000000000000000000000000000000000000000000000 DUP2 MSTORE REVERT JUMPDEST SWAP1 PUSH2 0xFDA DUP3 PUSH2 0xA63 JUMP JUMPDEST PUSH2 0xFE7 PUSH1 0x40 MLOAD SWAP2 DUP3 PUSH2 0x912 JUMP JUMPDEST DUP3 DUP2 MSTORE PUSH32 0xFFFFFFFFFFFFFFFFFFFFFFFFFFFFFFFFFFFFFFFFFFFFFFFFFFFFFFFFFFFFFFE0 PUSH2 0x1015 DUP3 SWAP5 PUSH2 0xA63 JUMP JUMPDEST ADD SWAP1 PUSH1 0x20 CALLDATASIZE SWAP2 ADD CALLDATACOPY JUMP JUMPDEST PUSH32 0xFFFFFFFFFFFFFFFFFFFFFFFFFFFFFFFFFFFFFFFFFFFFFFFFFFFFFFFFFFFFFFFF DUP2 EQ PUSH2 0x104C JUMPI PUSH1 0x1 ADD SWAP1 JUMP JUMPDEST PUSH32 0x4E487B7100000000000000000000000000000000000000000000000000000000 PUSH1 0x0 MSTORE PUSH1 0x11 PUSH1 0x4 MSTORE PUSH1 0x24 PUSH1 0x0 REVERT JUMPDEST DUP1 MLOAD PUSH1 0x20 DUP1 SWAP3 ADD SWAP2 PUSH1 0x0 JUMPDEST DUP3 DUP2 LT PUSH2 0x1094 JUMPI POP POP POP POP SWAP1 JUMP JUMPDEST DUP4 MLOAD DUP6 MSTORE SWAP4 DUP2 ADD SWAP4 SWAP3 DUP2 ADD SWAP3 PUSH1 0x1 ADD PUSH2 0x1086 JUMP JUMPDEST SWAP1 DUP2 MLOAD SWAP2 PUSH1 0x0 JUMPDEST DUP4 DUP2 LT PUSH2 0x10C0 JUMPI POP POP ADD PUSH1 0x0 DUP2 MSTORE SWAP1 JUMP JUMPDEST DUP1 PUSH1 0x20 DUP1 SWAP3 DUP5 ADD ADD MLOAD DUP2 DUP6 ADD MSTORE ADD PUSH2 0x10AF JUMP JUMPDEST PUSH1 0x40 MLOAD PUSH1 0x20 DUP1 DUP3 ADD SWAP3 PUSH32 0x618358AC3DB8DC274F0CD8829DA7E234BD48CD73C4A740AEDE1ADEC9846D06A1 DUP5 MSTORE PUSH20 0xFFFFFFFFFFFFFFFFFFFFFFFFFFFFFFFFFFFFFFFF DUP2 MLOAD AND PUSH1 0x40 DUP5 ADD MSTORE ADD MLOAD PUSH1 0x60 DUP3 ADD MSTORE PUSH1 0x60 DUP2 MSTORE PUSH2 0xC8A DUP2 PUSH2 0x8DA JUMP JUMPDEST SWAP2 SWAP1 DUP3 PUSH1 0x40 SWAP2 SUB SLT PUSH2 0x976 JUMPI PUSH1 0x20 DUP3 CALLDATALOAD SWAP3 ADD CALLDATALOAD SWAP1 JUMP JUMPDEST PUSH1 0x0 DUP5 EXTCODESIZE PUSH2 0x12AD JUMPI POP PUSH1 0x41 DUP3 SUB PUSH2 0x122B JUMPI PUSH2 0x1163 DUP3 DUP3 ADD DUP3 PUSH2 0x1130 JUMP JUMPDEST SWAP4 SWAP1 SWAP3 PUSH1 0x40 LT ISZERO PUSH2 0xDCA JUMPI PUSH1 0x20 SWAP4 PUSH1 0x0 SWAP4 PUSH1 0xFF PUSH1 0x40 PUSH1 0x80 SWAP6 ADD CALLDATALOAD PUSH1 0xF8 SHR JUMPDEST PUSH1 0x40 MLOAD SWAP5 DUP6 MSTORE AND DUP7 DUP5 ADD MSTORE PUSH1 0x40 DUP4 ADD MSTORE PUSH1 0x60 DUP3 ADD MSTORE DUP3 DUP1 MSTORE PUSH1 0x1 GAS STATICCALL ISZERO PUSH2 0x121F JUMPI PUSH20 0xFFFFFFFFFFFFFFFFFFFFFFFFFFFFFFFFFFFFFFFF DUP1 PUSH1 0x0 MLOAD AND SWAP2 DUP3 ISZERO PUSH2 0x11F5 JUMPI AND SUB PUSH2 0x11CB JUMPI JUMP JUMPDEST PUSH1 0x4 PUSH1 0x40 MLOAD PUSH32 0x815E1D6400000000000000000000000000000000000000000000000000000000 DUP2 MSTORE REVERT JUMPDEST PUSH1 0x4 PUSH1 0x40 MLOAD PUSH32 0x8BAA579F00000000000000000000000000000000000000000000000000000000 DUP2 MSTORE REVERT JUMPDEST PUSH1 0x40 MLOAD RETURNDATASIZE PUSH1 0x0 DUP3 RETURNDATACOPY RETURNDATASIZE SWAP1 REVERT JUMPDEST PUSH1 0x40 DUP3 SUB PUSH2 0x1283 JUMPI PUSH2 0x123F SWAP2 DUP2 ADD SWAP1 PUSH2 0x1130 JUMP JUMPDEST SWAP2 PUSH1 0x1B PUSH32 0x7FFFFFFFFFFFFFFFFFFFFFFFFFFFFFFFFFFFFFFFFFFFFFFFFFFFFFFFFFFFFFFF DUP5 AND SWAP4 PUSH1 0xFF SHR ADD SWAP1 PUSH1 0xFF DUP3 GT PUSH2 0x104C JUMPI PUSH1 0x20 SWAP4 PUSH1 0x0 SWAP4 PUSH1 0xFF PUSH1 0x80 SWAP5 PUSH2 0x1181 JUMP JUMPDEST PUSH1 0x4 PUSH1 0x40 MLOAD PUSH32 0x4BE6321B00000000000000000000000000000000000000000000000000000000 DUP2 MSTORE REVERT JUMPDEST SWAP3 SWAP4 SWAP2 PUSH1 0x1F SWAP3 DUP2 PUSH20 0xFFFFFFFFFFFFFFFFFFFFFFFFFFFFFFFFFFFFFFFF PUSH1 0x64 PUSH1 0x20 SWAP6 PUSH32 0xFFFFFFFFFFFFFFFFFFFFFFFFFFFFFFFFFFFFFFFFFFFFFFFFFFFFFFFFFFFFFFE0 PUSH1 0x40 MLOAD SWAP9 DUP10 SWAP8 DUP9 SWAP7 DUP8 SWAP5 PUSH32 0x1626BA7E00000000000000000000000000000000000000000000000000000000 SWAP15 DUP16 DUP8 MSTORE PUSH1 0x4 DUP8 ADD MSTORE PUSH1 0x40 PUSH1 0x24 DUP8 ADD MSTORE DUP2 PUSH1 0x44 DUP8 ADD MSTORE DUP7 DUP7 ADD CALLDATACOPY DUP12 DUP6 DUP3 DUP7 ADD ADD MSTORE ADD AND DUP2 ADD SUB ADD SWAP3 AND GAS STATICCALL SWAP1 DUP2 ISZERO PUSH2 0x142A JUMPI DUP3 SWAP2 PUSH2 0x13A9 JUMPI JUMPDEST POP PUSH32 0xFFFFFFFF00000000000000000000000000000000000000000000000000000000 SWAP2 POP AND SUB PUSH2 0x137F JUMPI JUMP JUMPDEST PUSH1 0x4 PUSH1 0x40 MLOAD PUSH32 0xB0669CBC00000000000000000000000000000000000000000000000000000000 DUP2 MSTORE REVERT JUMPDEST SWAP1 POP PUSH1 0x20 DUP2 RETURNDATASIZE DUP3 GT PUSH2 0x1422 JUMPI JUMPDEST DUP2 PUSH2 0x13C3 PUSH1 0x20 SWAP4 DUP4 PUSH2 0x912 JUMP JUMPDEST DUP2 ADD SUB SLT PUSH2 0x2DE JUMPI MLOAD SWAP1 PUSH32 0xFFFFFFFF00000000000000000000000000000000000000000000000000000000 DUP3 AND DUP3 SUB PUSH2 0x141F JUMPI POP PUSH32 0xFFFFFFFF00000000000000000000000000000000000000000000000000000000 SWAP1 CODESIZE PUSH2 0x1353 JUMP JUMPDEST DUP1 REVERT JUMPDEST RETURNDATASIZE SWAP2 POP PUSH2 0x13B6 JUMP JUMPDEST PUSH1 0x40 MLOAD RETURNDATASIZE DUP5 DUP3 RETURNDATACOPY RETURNDATASIZE SWAP1 REVERT JUMPDEST SWAP2 PUSH1 0x0 DUP1 SWAP4 PUSH1 0x20 SWAP6 PUSH1 0x64 SWAP5 PUSH1 0x40 MLOAD SWAP5 PUSH32 0x23B872DD00000000000000000000000000000000000000000000000000000000 DUP7 MSTORE PUSH20 0xFFFFFFFFFFFFFFFFFFFFFFFFFFFFFFFFFFFFFFFF DUP1 SWAP3 AND PUSH1 0x4 DUP8 ADD MSTORE AND PUSH1 0x24 DUP6 ADD MSTORE PUSH1 0x44 DUP5 ADD MSTORE GAS CALL RETURNDATASIZE ISZERO PUSH1 0x1F RETURNDATASIZE GT PUSH1 0x1 PUSH1 0x0 MLOAD EQ AND OR AND ISZERO PUSH2 0x14A7 JUMPI JUMP JUMPDEST PUSH1 0x64 PUSH1 0x40 MLOAD PUSH32 0x8C379A000000000000000000000000000000000000000000000000000000000 DUP2 MSTORE PUSH1 0x20 PUSH1 0x4 DUP3 ADD MSTORE PUSH1 0x14 PUSH1 0x24 DUP3 ADD MSTORE PUSH32 0x5452414E534645525F46524F4D5F4641494C4544000000000000000000000000 PUSH1 0x44 DUP3 ADD MSTORE REVERT INVALID LOG2 PUSH5 0x6970667358 0x22 SLT KECCAK256 0xE6 DUP8 NUMBER 0x2F ADDRESS SWAP16 RETURNDATASIZE 0xCA 0xEF SHL 0x5D 0x5E 0xC6 0x2C PUSH10 0xC71986ABF6D1467B6FE0 0xE8 0x4B 0xEB 0xD2 DUP11 CODECOPY PUSH17 0x64736F6C63430008110033000000000000 "},"gasEstimates":{"creation":{"codeDepositCost":"1087000","executionCost":"infinite","totalCost":"infinite"},"external":{"DOMAIN_SEPARATOR()":"infinite","invalidateUnorderedNonces(uint256,uint256)":"26245","nonceBitmap(address,uint256)":"2518","permitTransferFrom(((address,uint256),uint256,uint256),(address,uint256),address,bytes)":"infinite","permitTransferFrom(((address,uint256)[],uint256,uint256),(address,uint256)[],address,bytes)":"infinite","permitWitnessTransferFrom(((address,uint256),uint256,uint256),(address,uint256),address,bytes32,string,bytes)":"infinite","permitWitnessTransferFrom(((address,uint256)[],uint256,uint256),(address,uint256)[],address,bytes32,string,bytes)":"infinite"},"internal":{"_permitTransferFrom(struct ISignatureTransfer.PermitBatchTransferFrom memory,struct ISignatureTransfer.SignatureTransferDetails calldata[] calldata,address,bytes32,bytes calldata)":"infinite","_permitTransferFrom(struct ISignatureTransfer.PermitTransferFrom memory,struct ISignatureTransfer.SignatureTransferDetails calldata,address,bytes32,bytes calldata)":"infinite","_useUnorderedNonce(address,uint256)":"infinite","bitmapPositions(uint256)":"infinite"}},"methodIdentifiers":{"DOMAIN_SEPARATOR()":"3644e515","invalidateUnorderedNonces(uint256,uint256)":"3ff9dcb1","nonceBitmap(address,uint256)":"4fe02b44","permitTransferFrom(((address,uint256),uint256,uint256),(address,uint256),address,bytes)":"30f28b7a","permitTransferFrom(((address,uint256)[],uint256,uint256),(address,uint256)[],address,bytes)":"edd9444b","permitWitnessTransferFrom(((address,uint256),uint256,uint256),(address,uint256),address,bytes32,string,bytes)":"137c29fe","permitWitnessTransferFrom(((address,uint256)[],uint256,uint256),(address,uint256)[],address,bytes32,string,bytes)":"fe8ec1a7"}},"storageLayout":{"storage":[{"astId":709,"contract":"contracts/SignatureTransfer.sol:SignatureTransfer","label":"nonceBitmap","offset":0,"slot":"0","type":"t_mapping(t_address,t_mapping(t_uint256,t_uint256))"}],"types":{"t_address":{"encoding":"inplace","label":"address","numberOfBytes":"20"},"t_mapping(t_address,t_mapping(t_uint256,t_uint256))":{"encoding":"mapping","key":"t_address","label":"mapping(address => mapping(uint256 => uint256))","numberOfBytes":"32","value":"t_mapping(t_uint256,t_uint256)"},"t_mapping(t_uint256,t_uint256)":{"encoding":"mapping","key":"t_uint256","label":"mapping(uint256 => uint256)","numberOfBytes":"32","value":"t_uint256"},"t_uint256":{"encoding":"inplace","label":"uint256","numberOfBytes":"32"}}},"userdoc":{"errors":{"InvalidAmount(uint256)":[{"notice":"Thrown when the requested amount for a transfer is larger than the permissioned amount"}],"InvalidContractSignature()":[{"notice":"Thrown when the recovered contract signature is incorrect"}],"InvalidNonce()":[{"notice":"Thrown when validating that the inputted nonce has not been used"}],"InvalidSignature()":[{"notice":"Thrown when the recovered signer is equal to the zero address"}],"InvalidSignatureLength()":[{"notice":"Thrown when the passed in signature is not a valid length"}],"InvalidSigner()":[{"notice":"Thrown when the recovered signer does not equal the claimedSigner"}],"LengthMismatch()":[{"notice":"Thrown when the number of tokens permissioned to a spender does not match the number of tokens being transferred"}],"SignatureExpired(uint256)":[{"notice":"Thrown when validating an inputted signature that is stale"}]},"events":{"UnorderedNonceInvalidation(address,uint256,uint256)":{"notice":"Emits an event when the owner successfully invalidates an unordered nonce."}},"kind":"user","methods":{"DOMAIN_SEPARATOR()":{"notice":"Returns the domain separator for the current chain."},"invalidateUnorderedNonces(uint256,uint256)":{"notice":"Invalidates the bits specified in mask for the bitmap at the word position"},"nonceBitmap(address,uint256)":{"notice":"A map from token owner address and a caller specified word index to a bitmap. Used to set bits in the bitmap to prevent against signature replay protection"},"permitTransferFrom(((address,uint256),uint256,uint256),(address,uint256),address,bytes)":{"notice":"Transfers a token using a signed permit message"},"permitTransferFrom(((address,uint256)[],uint256,uint256),(address,uint256)[],address,bytes)":{"notice":"Transfers multiple tokens using a signed permit message"},"permitWitnessTransferFrom(((address,uint256),uint256,uint256),(address,uint256),address,bytes32,string,bytes)":{"notice":"Transfers a token using a signed permit messageIncludes extra data provided by the caller to verify signature over"},"permitWitnessTransferFrom(((address,uint256)[],uint256,uint256),(address,uint256)[],address,bytes32,string,bytes)":{"notice":"Transfers multiple tokens using a signed permit messageIncludes extra data provided by the caller to verify signature over"}},"version":1}}}}